{
  "contractName": "ERC",
  "abi": [
    {
      "inputs": [
        {
          "internalType": "uint256",
          "name": "initialSupply",
          "type": "uint256"
        }
      ],
      "stateMutability": "nonpayable",
      "type": "constructor"
    },
    {
      "anonymous": false,
      "inputs": [
        {
          "indexed": true,
          "internalType": "address",
          "name": "owner",
          "type": "address"
        },
        {
          "indexed": true,
          "internalType": "address",
          "name": "spender",
          "type": "address"
        },
        {
          "indexed": false,
          "internalType": "uint256",
          "name": "value",
          "type": "uint256"
        }
      ],
      "name": "Approval",
      "type": "event"
    },
    {
      "anonymous": false,
      "inputs": [
        {
          "indexed": false,
          "internalType": "uint256",
          "name": "id",
          "type": "uint256"
        },
        {
          "indexed": true,
          "internalType": "address",
          "name": "proposer",
          "type": "address"
        },
        {
          "indexed": false,
          "internalType": "string",
          "name": "desc",
          "type": "string"
        }
      ],
      "name": "ProposalCreated",
      "type": "event"
    },
    {
      "anonymous": false,
      "inputs": [
        {
          "indexed": true,
          "internalType": "uint256",
          "name": "proposalId",
          "type": "uint256"
        },
        {
          "indexed": false,
          "internalType": "uint256",
          "name": "forVotes",
          "type": "uint256"
        },
        {
          "indexed": false,
          "internalType": "uint256",
          "name": "againstVotes",
          "type": "uint256"
        }
      ],
      "name": "ProposalExecuted",
      "type": "event"
    },
    {
      "anonymous": false,
      "inputs": [
        {
          "indexed": true,
          "internalType": "address",
          "name": "from",
          "type": "address"
        },
        {
          "indexed": true,
          "internalType": "address",
          "name": "to",
          "type": "address"
        },
        {
          "indexed": false,
          "internalType": "uint256",
          "name": "value",
          "type": "uint256"
        }
      ],
      "name": "Transfer",
      "type": "event"
    },
    {
      "anonymous": false,
      "inputs": [
        {
          "indexed": true,
          "internalType": "uint256",
          "name": "proposalId",
          "type": "uint256"
        },
        {
          "indexed": true,
          "internalType": "address",
          "name": "voter",
          "type": "address"
        },
        {
          "indexed": false,
          "internalType": "bool",
          "name": "forVote",
          "type": "bool"
        }
      ],
      "name": "Voted",
      "type": "event"
    },
    {
      "inputs": [],
      "name": "Now",
      "outputs": [
        {
          "internalType": "uint256",
          "name": "",
          "type": "uint256"
        }
      ],
      "stateMutability": "view",
      "type": "function",
      "constant": true
    },
    {
      "inputs": [],
      "name": "admin",
      "outputs": [
        {
          "internalType": "address",
          "name": "",
          "type": "address"
        }
      ],
      "stateMutability": "view",
      "type": "function",
      "constant": true
    },
    {
      "inputs": [
        {
          "internalType": "address",
          "name": "owner",
          "type": "address"
        },
        {
          "internalType": "address",
          "name": "spender",
          "type": "address"
        }
      ],
      "name": "allowance",
      "outputs": [
        {
          "internalType": "uint256",
          "name": "",
          "type": "uint256"
        }
      ],
      "stateMutability": "view",
      "type": "function",
      "constant": true
    },
    {
      "inputs": [
        {
          "internalType": "address",
          "name": "spender",
          "type": "address"
        },
        {
          "internalType": "uint256",
          "name": "amount",
          "type": "uint256"
        }
      ],
      "name": "approve",
      "outputs": [
        {
          "internalType": "bool",
          "name": "",
          "type": "bool"
        }
      ],
      "stateMutability": "nonpayable",
      "type": "function"
    },
    {
      "inputs": [
        {
          "internalType": "address",
          "name": "account",
          "type": "address"
        }
      ],
      "name": "balanceOf",
      "outputs": [
        {
          "internalType": "uint256",
          "name": "",
          "type": "uint256"
        }
      ],
      "stateMutability": "view",
      "type": "function",
      "constant": true
    },
    {
      "inputs": [],
      "name": "decimals",
      "outputs": [
        {
          "internalType": "uint8",
          "name": "",
          "type": "uint8"
        }
      ],
      "stateMutability": "view",
      "type": "function",
      "constant": true
    },
    {
      "inputs": [
        {
          "internalType": "address",
          "name": "spender",
          "type": "address"
        },
        {
          "internalType": "uint256",
          "name": "subtractedValue",
          "type": "uint256"
        }
      ],
      "name": "decreaseAllowance",
      "outputs": [
        {
          "internalType": "bool",
          "name": "",
          "type": "bool"
        }
      ],
      "stateMutability": "nonpayable",
      "type": "function"
    },
    {
      "inputs": [
        {
          "internalType": "address",
          "name": "spender",
          "type": "address"
        },
        {
          "internalType": "uint256",
          "name": "addedValue",
          "type": "uint256"
        }
      ],
      "name": "increaseAllowance",
      "outputs": [
        {
          "internalType": "bool",
          "name": "",
          "type": "bool"
        }
      ],
      "stateMutability": "nonpayable",
      "type": "function"
    },
    {
      "inputs": [],
      "name": "name",
      "outputs": [
        {
          "internalType": "string",
          "name": "",
          "type": "string"
        }
      ],
      "stateMutability": "view",
      "type": "function",
      "constant": true
    },
    {
      "inputs": [],
      "name": "proposalCount",
      "outputs": [
        {
          "internalType": "uint256",
          "name": "",
          "type": "uint256"
        }
      ],
      "stateMutability": "view",
      "type": "function",
      "constant": true
    },
    {
      "inputs": [
        {
          "internalType": "uint256",
          "name": "",
          "type": "uint256"
        }
      ],
      "name": "proposals",
      "outputs": [
        {
          "internalType": "uint256",
          "name": "id",
          "type": "uint256"
        },
        {
          "internalType": "address",
          "name": "proposer",
          "type": "address"
        },
        {
          "internalType": "string",
          "name": "description",
          "type": "string"
        },
        {
          "internalType": "uint256",
          "name": "forVotes",
          "type": "uint256"
        },
        {
          "internalType": "uint256",
          "name": "againstVotes",
          "type": "uint256"
        },
        {
          "internalType": "enum ERC.ProposalStatus",
          "name": "status",
          "type": "uint8"
        }
      ],
      "stateMutability": "view",
      "type": "function",
      "constant": true
    },
    {
      "inputs": [],
      "name": "symbol",
      "outputs": [
        {
          "internalType": "string",
          "name": "",
          "type": "string"
        }
      ],
      "stateMutability": "view",
      "type": "function",
      "constant": true
    },
    {
      "inputs": [],
      "name": "token",
      "outputs": [
        {
          "internalType": "contract IERC20",
          "name": "",
          "type": "address"
        }
      ],
      "stateMutability": "view",
      "type": "function",
      "constant": true
    },
    {
      "inputs": [],
      "name": "totalSupply",
      "outputs": [
        {
          "internalType": "uint256",
          "name": "",
          "type": "uint256"
        }
      ],
      "stateMutability": "view",
      "type": "function",
      "constant": true
    },
    {
      "inputs": [
        {
          "internalType": "address",
          "name": "recipient",
          "type": "address"
        },
        {
          "internalType": "uint256",
          "name": "amount",
          "type": "uint256"
        }
      ],
      "name": "transfer",
      "outputs": [
        {
          "internalType": "bool",
          "name": "",
          "type": "bool"
        }
      ],
      "stateMutability": "nonpayable",
      "type": "function"
    },
    {
      "inputs": [
        {
          "internalType": "address",
          "name": "sender",
          "type": "address"
        },
        {
          "internalType": "address",
          "name": "recipient",
          "type": "address"
        },
        {
          "internalType": "uint256",
          "name": "amount",
          "type": "uint256"
        }
      ],
      "name": "transferFrom",
      "outputs": [
        {
          "internalType": "bool",
          "name": "",
          "type": "bool"
        }
      ],
      "stateMutability": "nonpayable",
      "type": "function"
    },
    {
      "inputs": [],
      "name": "votingEndTime",
      "outputs": [
        {
          "internalType": "uint256",
          "name": "",
          "type": "uint256"
        }
      ],
      "stateMutability": "view",
      "type": "function",
      "constant": true
    },
    {
      "inputs": [
        {
          "internalType": "string",
          "name": "_description",
          "type": "string"
        }
      ],
      "name": "createProposal",
      "outputs": [],
      "stateMutability": "nonpayable",
      "type": "function"
    },
    {
      "inputs": [
        {
          "internalType": "uint256",
          "name": "proposalId",
          "type": "uint256"
        },
        {
          "internalType": "bool",
          "name": "inSupport",
          "type": "bool"
        }
      ],
      "name": "vote",
      "outputs": [],
      "stateMutability": "nonpayable",
      "type": "function"
    },
    {
      "inputs": [
        {
          "internalType": "uint256",
          "name": "proposalId",
          "type": "uint256"
        }
      ],
      "name": "executeProposal",
      "outputs": [],
      "stateMutability": "nonpayable",
      "type": "function"
    },
    {
      "inputs": [
        {
          "internalType": "uint256",
          "name": "_durationInSeconds",
          "type": "uint256"
        }
      ],
      "name": "setVotingPeriod",
      "outputs": [],
      "stateMutability": "nonpayable",
      "type": "function"
    }
  ],
  "bytecode": "0x6080604052426008553480156200001557600080fd5b50604051620029d5380380620029d583398181016040528101906200003b91906200037f565b6040518060400160405280600581526020017f546f6b656e0000000000000000000000000000000000000000000000000000008152506040518060400160405280600481526020017f47564d54000000000000000000000000000000000000000000000000000000008152508160039080519060200190620000bf929190620002b8565b508060049080519060200190620000d8929190620002b8565b505050620000ed33826200013560201b60201c565b33600560006101000a81548173ffffffffffffffffffffffffffffffffffffffff021916908373ffffffffffffffffffffffffffffffffffffffff1602179055505062000563565b600073ffffffffffffffffffffffffffffffffffffffff168273ffffffffffffffffffffffffffffffffffffffff161415620001a8576040517f08c379a00000000000000000000000000000000000000000000000000000000081526004016200019f90620003fe565b60405180910390fd5b620001bc60008383620002ae60201b60201c565b8060026000828254620001d091906200044e565b92505081905550806000808473ffffffffffffffffffffffffffffffffffffffff1673ffffffffffffffffffffffffffffffffffffffff16815260200190815260200160002060008282546200022791906200044e565b925050819055508173ffffffffffffffffffffffffffffffffffffffff16600073ffffffffffffffffffffffffffffffffffffffff167fddf252ad1be2c89b69c2b068fc378daa952ba7f163c4a11628f55a4df523b3ef836040516200028e919062000420565b60405180910390a3620002aa60008383620002b360201b60201c565b5050565b505050565b505050565b828054620002c690620004b5565b90600052602060002090601f016020900481019282620002ea576000855562000336565b82601f106200030557805160ff191683800117855562000336565b8280016001018555821562000336579182015b828111156200033557825182559160200191906001019062000318565b5b50905062000345919062000349565b5090565b5b80821115620003645760008160009055506001016200034a565b5090565b600081519050620003798162000549565b92915050565b6000602082840312156200039257600080fd5b6000620003a28482850162000368565b91505092915050565b6000620003ba601f836200043d565b91507f45524332303a206d696e7420746f20746865207a65726f2061646472657373006000830152602082019050919050565b620003f881620004ab565b82525050565b600060208201905081810360008301526200041981620003ab565b9050919050565b6000602082019050620004376000830184620003ed565b92915050565b600082825260208201905092915050565b60006200045b82620004ab565b91506200046883620004ab565b9250827fffffffffffffffffffffffffffffffffffffffffffffffffffffffffffffffff03821115620004a0576200049f620004eb565b5b828201905092915050565b6000819050919050565b60006002820490506001821680620004ce57607f821691505b60208210811415620004e557620004e46200051a565b5b50919050565b7f4e487b7100000000000000000000000000000000000000000000000000000000600052601160045260246000fd5b7f4e487b7100000000000000000000000000000000000000000000000000000000600052602260045260246000fd5b6200055481620004ab565b81146200056057600080fd5b50565b61246280620005736000396000f3fe608060405234801561001057600080fd5b50600436106101375760003560e01c806349c2a1a6116100b8578063c9d27afe1161007c578063c9d27afe1461037d578063da35c66414610399578063dd62ed3e146103b7578063ea0217cf146103e7578063f851a44014610403578063fc0c546a1461042157610137565b806349c2a1a6146102b357806370a08231146102cf57806395d89b41146102ff578063a457c2d71461031d578063a9059cbb1461034d57610137565b80631ea736e0116100ff5780631ea736e0146101f957806323b872dd14610217578063313ce56714610247578063395093511461026557806344d4fd191461029557610137565b8063013cf08b1461013c57806306fdde0314610171578063095ea7b31461018f5780630d61b519146101bf57806318160ddd146101db575b600080fd5b610156600480360381019061015191906118ec565b61043f565b60405161016896959493929190611ffc565b60405180910390f35b610179610530565b6040516101869190611e3f565b60405180910390f35b6101a960048036038101906101a4919061186f565b6105c2565b6040516101b69190611e09565b60405180910390f35b6101d960048036038101906101d491906118ec565b6105e0565b005b6101e3610891565b6040516101f09190611fe1565b60405180910390f35b61020161089b565b60405161020e9190611fe1565b60405180910390f35b610231600480360381019061022c9190611820565b6108a1565b60405161023e9190611e09565b60405180910390f35b61024f610999565b60405161025c91906120bd565b60405180910390f35b61027f600480360381019061027a919061186f565b6109a2565b60405161028c9190611e09565b60405180910390f35b61029d610a4e565b6040516102aa9190611fe1565b60405180910390f35b6102cd60048036038101906102c891906118ab565b610a54565b005b6102e960048036038101906102e491906117bb565b610c7d565b6040516102f69190611fe1565b60405180910390f35b610307610cc5565b6040516103149190611e3f565b60405180910390f35b6103376004803603810190610332919061186f565b610d57565b6040516103449190611e09565b60405180910390f35b6103676004803603810190610362919061186f565b610e42565b6040516103749190611e09565b60405180910390f35b61039760048036038101906103929190611915565b610e60565b005b6103a1611095565b6040516103ae9190611fe1565b60405180910390f35b6103d160048036038101906103cc91906117e4565b61109b565b6040516103de9190611fe1565b60405180910390f35b61040160048036038101906103fc91906118ec565b611122565b005b61040b6111c7565b6040516104189190611dee565b60405180910390f35b6104296111ed565b6040516104369190611e24565b60405180910390f35b600a6020528060005260406000206000915090508060000154908060010160009054906101000a900473ffffffffffffffffffffffffffffffffffffffff169080600201805461048e9061228b565b80601f01602080910402602001604051908101604052809291908181526020018280546104ba9061228b565b80156105075780601f106104dc57610100808354040283529160200191610507565b820191906000526020600020905b8154815290600101906020018083116104ea57829003601f168201915b5050505050908060030154908060040154908060050160009054906101000a900460ff16905086565b60606003805461053f9061228b565b80601f016020809104026020016040519081016040528092919081815260200182805461056b9061228b565b80156105b85780601f1061058d576101008083540402835291602001916105b8565b820191906000526020600020905b81548152906001019060200180831161059b57829003601f168201915b5050505050905090565b60006105d66105cf611213565b848461121b565b6001905092915050565b600560009054906101000a900473ffffffffffffffffffffffffffffffffffffffff1673ffffffffffffffffffffffffffffffffffffffff163373ffffffffffffffffffffffffffffffffffffffff1614610670576040517f08c379a000000000000000000000000000000000000000000000000000000000815260040161066790611f01565b60405180910390fd5b60085442106106b4576040517f08c379a00000000000000000000000000000000000000000000000000000000081526004016106ab90611f81565b60405180910390fd5b6000600a6000838152602001908152602001600020905060006002811115610705577f4e487b7100000000000000000000000000000000000000000000000000000000600052602160045260246000fd5b8160050160009054906101000a900460ff16600281111561074f577f4e487b7100000000000000000000000000000000000000000000000000000000600052602160045260246000fd5b1461078f576040517f08c379a000000000000000000000000000000000000000000000000000000000815260040161078690611f41565b60405180910390fd5b8060040154816003015411156108395760018160050160006101000a81548160ff021916908360028111156107ed577f4e487b7100000000000000000000000000000000000000000000000000000000600052602160045260246000fd5b0217905550817f3842d9e8746c3c1b0c5e717a88df9c9ae97f2f8c0e01e42dce160aafdb3840e98260030154836004015460405161082c929190612094565b60405180910390a261088d565b60028160050160006101000a81548160ff02191690836002811115610887577f4e487b7100000000000000000000000000000000000000000000000000000000600052602160045260246000fd5b02179055505b5050565b6000600254905090565b60085481565b60006108ae8484846113e6565b6000600160008673ffffffffffffffffffffffffffffffffffffffff1673ffffffffffffffffffffffffffffffffffffffff16815260200190815260200160002060006108f9611213565b73ffffffffffffffffffffffffffffffffffffffff1673ffffffffffffffffffffffffffffffffffffffff16815260200190815260200160002054905082811015610979576040517f08c379a000000000000000000000000000000000000000000000000000000000815260040161097090611ee1565b60405180910390fd5b61098d85610985611213565b85840361121b565b60019150509392505050565b60006012905090565b6000610a446109af611213565b8484600160006109bd611213565b73ffffffffffffffffffffffffffffffffffffffff1673ffffffffffffffffffffffffffffffffffffffff16815260200190815260200160002060008873ffffffffffffffffffffffffffffffffffffffff1673ffffffffffffffffffffffffffffffffffffffff16815260200190815260200160002054610a3f9190612155565b61121b565b6001905092915050565b60095481565b600560009054906101000a900473ffffffffffffffffffffffffffffffffffffffff1673ffffffffffffffffffffffffffffffffffffffff163373ffffffffffffffffffffffffffffffffffffffff1614610ae4576040517f08c379a0000000000000000000000000000000000000000000000000000000008152600401610adb90611f01565b60405180910390fd5b6008544210610b28576040517f08c379a0000000000000000000000000000000000000000000000000000000008152600401610b1f90611f81565b60405180910390fd5b60076000815480929190610b3b906122bd565b91905055506000600a6000600754815260200190815260200160002090506007548160000181905550338160010160006101000a81548173ffffffffffffffffffffffffffffffffffffffff021916908373ffffffffffffffffffffffffffffffffffffffff16021790555081816002019080519060200190610bbf929190611671565b50600081600301819055506000816004018190555060008160050160006101000a81548160ff02191690836002811115610c22577f4e487b7100000000000000000000000000000000000000000000000000000000600052602160045260246000fd5b02179055503373ffffffffffffffffffffffffffffffffffffffff167f7585f467599d0f008985f231af99293be388626ac16ca59505c2f8f88969cd6360075484604051610c71929190612064565b60405180910390a25050565b60008060008373ffffffffffffffffffffffffffffffffffffffff1673ffffffffffffffffffffffffffffffffffffffff168152602001908152602001600020549050919050565b606060048054610cd49061228b565b80601f0160208091040260200160405190810160405280929190818152602001828054610d009061228b565b8015610d4d5780601f10610d2257610100808354040283529160200191610d4d565b820191906000526020600020905b815481529060010190602001808311610d3057829003601f168201915b5050505050905090565b60008060016000610d66611213565b73ffffffffffffffffffffffffffffffffffffffff1673ffffffffffffffffffffffffffffffffffffffff16815260200190815260200160002060008573ffffffffffffffffffffffffffffffffffffffff1673ffffffffffffffffffffffffffffffffffffffff16815260200190815260200160002054905082811015610e23576040517f08c379a0000000000000000000000000000000000000000000000000000000008152600401610e1a90611fc1565b60405180910390fd5b610e37610e2e611213565b8585840361121b565b600191505092915050565b6000610e56610e4f611213565b84846113e6565b6001905092915050565b6008544210610ea4576040517f08c379a0000000000000000000000000000000000000000000000000000000008152600401610e9b90611f81565b60405180910390fd5b6000600a600084815260200190815260200160002090508060060160003373ffffffffffffffffffffffffffffffffffffffff1673ffffffffffffffffffffffffffffffffffffffff16815260200190815260200160002060009054906101000a900460ff1615610f4a576040517f08c379a0000000000000000000000000000000000000000000000000000000008152600401610f4190611ec1565b60405180910390fd5b6000610f5533610c7d565b11610f95576040517f08c379a0000000000000000000000000000000000000000000000000000000008152600401610f8c90611fa1565b60405180910390fd5b8115610fc357610fa433610c7d565b816003016000828254610fb79190612155565b92505081905550610fe7565b610fcc33610c7d565b816004016000828254610fdf9190612155565b925050819055505b60018160060160003373ffffffffffffffffffffffffffffffffffffffff1673ffffffffffffffffffffffffffffffffffffffff16815260200190815260200160002060006101000a81548160ff0219169083151502179055503373ffffffffffffffffffffffffffffffffffffffff16837ff2913dbe661ee2acc4a046d8fbcdc792373bda34c41c6086484b5345e5785e5f846040516110889190611e09565b60405180910390a3505050565b60075481565b6000600160008473ffffffffffffffffffffffffffffffffffffffff1673ffffffffffffffffffffffffffffffffffffffff16815260200190815260200160002060008373ffffffffffffffffffffffffffffffffffffffff1673ffffffffffffffffffffffffffffffffffffffff16815260200190815260200160002054905092915050565b600560009054906101000a900473ffffffffffffffffffffffffffffffffffffffff1673ffffffffffffffffffffffffffffffffffffffff163373ffffffffffffffffffffffffffffffffffffffff16146111b2576040517f08c379a00000000000000000000000000000000000000000000000000000000081526004016111a990611f01565b60405180910390fd5b80426111be9190612155565b60088190555050565b600560009054906101000a900473ffffffffffffffffffffffffffffffffffffffff1681565b600660009054906101000a900473ffffffffffffffffffffffffffffffffffffffff1681565b600033905090565b600073ffffffffffffffffffffffffffffffffffffffff168373ffffffffffffffffffffffffffffffffffffffff16141561128b576040517f08c379a000000000000000000000000000000000000000000000000000000000815260040161128290611f61565b60405180910390fd5b600073ffffffffffffffffffffffffffffffffffffffff168273ffffffffffffffffffffffffffffffffffffffff1614156112fb576040517f08c379a00000000000000000000000000000000000000000000000000000000081526004016112f290611e81565b60405180910390fd5b80600160008573ffffffffffffffffffffffffffffffffffffffff1673ffffffffffffffffffffffffffffffffffffffff16815260200190815260200160002060008473ffffffffffffffffffffffffffffffffffffffff1673ffffffffffffffffffffffffffffffffffffffff168152602001908152602001600020819055508173ffffffffffffffffffffffffffffffffffffffff168373ffffffffffffffffffffffffffffffffffffffff167f8c5be1e5ebec7d5bd14f71427d1e84f3dd0314c0f7b2291e5b200ac8c7c3b925836040516113d99190611fe1565b60405180910390a3505050565b600073ffffffffffffffffffffffffffffffffffffffff168373ffffffffffffffffffffffffffffffffffffffff161415611456576040517f08c379a000000000000000000000000000000000000000000000000000000000815260040161144d90611f21565b60405180910390fd5b600073ffffffffffffffffffffffffffffffffffffffff168273ffffffffffffffffffffffffffffffffffffffff1614156114c6576040517f08c379a00000000000000000000000000000000000000000000000000000000081526004016114bd90611e61565b60405180910390fd5b6114d1838383611667565b60008060008573ffffffffffffffffffffffffffffffffffffffff1673ffffffffffffffffffffffffffffffffffffffff16815260200190815260200160002054905081811015611557576040517f08c379a000000000000000000000000000000000000000000000000000000000815260040161154e90611ea1565b60405180910390fd5b8181036000808673ffffffffffffffffffffffffffffffffffffffff1673ffffffffffffffffffffffffffffffffffffffff16815260200190815260200160002081905550816000808573ffffffffffffffffffffffffffffffffffffffff1673ffffffffffffffffffffffffffffffffffffffff16815260200190815260200160002060008282546115ea9190612155565b925050819055508273ffffffffffffffffffffffffffffffffffffffff168473ffffffffffffffffffffffffffffffffffffffff167fddf252ad1be2c89b69c2b068fc378daa952ba7f163c4a11628f55a4df523b3ef8460405161164e9190611fe1565b60405180910390a361166184848461166c565b50505050565b505050565b505050565b82805461167d9061228b565b90600052602060002090601f01602090048101928261169f57600085556116e6565b82601f106116b857805160ff19168380011785556116e6565b828001600101855582156116e6579182015b828111156116e55782518255916020019190600101906116ca565b5b5090506116f391906116f7565b5090565b5b808211156117105760008160009055506001016116f8565b5090565b600061172761172284612109565b6120d8565b90508281526020810184848401111561173f57600080fd5b61174a848285612249565b509392505050565b600081359050611761816123e7565b92915050565b600081359050611776816123fe565b92915050565b600082601f83011261178d57600080fd5b813561179d848260208601611714565b91505092915050565b6000813590506117b581612415565b92915050565b6000602082840312156117cd57600080fd5b60006117db84828501611752565b91505092915050565b600080604083850312156117f757600080fd5b600061180585828601611752565b925050602061181685828601611752565b9150509250929050565b60008060006060848603121561183557600080fd5b600061184386828701611752565b935050602061185486828701611752565b9250506040611865868287016117a6565b9150509250925092565b6000806040838503121561188257600080fd5b600061189085828601611752565b92505060206118a1858286016117a6565b9150509250929050565b6000602082840312156118bd57600080fd5b600082013567ffffffffffffffff8111156118d757600080fd5b6118e38482850161177c565b91505092915050565b6000602082840312156118fe57600080fd5b600061190c848285016117a6565b91505092915050565b6000806040838503121561192857600080fd5b6000611936858286016117a6565b925050602061194785828601611767565b9150509250929050565b61195a816121ab565b82525050565b611969816121bd565b82525050565b61197881612213565b82525050565b61198781612237565b82525050565b600061199882612139565b6119a28185612144565b93506119b2818560208601612258565b6119bb816123c2565b840191505092915050565b60006119d3602383612144565b91507f45524332303a207472616e7366657220746f20746865207a65726f206164647260008301527f65737300000000000000000000000000000000000000000000000000000000006020830152604082019050919050565b6000611a39602283612144565b91507f45524332303a20617070726f766520746f20746865207a65726f20616464726560008301527f73730000000000000000000000000000000000000000000000000000000000006020830152604082019050919050565b6000611a9f602683612144565b91507f45524332303a207472616e7366657220616d6f756e742065786365656473206260008301527f616c616e636500000000000000000000000000000000000000000000000000006020830152604082019050919050565b6000611b05600d83612144565b91507f416c726561647920766f746564000000000000000000000000000000000000006000830152602082019050919050565b6000611b45602883612144565b91507f45524332303a207472616e7366657220616d6f756e742065786365656473206160008301527f6c6c6f77616e63650000000000000000000000000000000000000000000000006020830152604082019050919050565b6000611bab601683612144565b91507f4f6e6c792041646d696e732063616e20616363657373000000000000000000006000830152602082019050919050565b6000611beb602583612144565b91507f45524332303a207472616e736665722066726f6d20746865207a65726f20616460008301527f64726573730000000000000000000000000000000000000000000000000000006020830152604082019050919050565b6000611c51601483612144565b91507f50726f706f73616c206e6f742070656e64696e670000000000000000000000006000830152602082019050919050565b6000611c91602483612144565b91507f45524332303a20617070726f76652066726f6d20746865207a65726f2061646460008301527f72657373000000000000000000000000000000000000000000000000000000006020830152604082019050919050565b6000611cf7601783612144565b91507f566f74696e6720706572696f642068617320656e6465640000000000000000006000830152602082019050919050565b6000611d37601e83612144565b91507f496e73756666696369656e7420746f6b656e7320666f7220766f74696e6700006000830152602082019050919050565b6000611d77602583612144565b91507f45524332303a2064656372656173656420616c6c6f77616e63652062656c6f7760008301527f207a65726f0000000000000000000000000000000000000000000000000000006020830152604082019050919050565b611dd9816121fc565b82525050565b611de881612206565b82525050565b6000602082019050611e036000830184611951565b92915050565b6000602082019050611e1e6000830184611960565b92915050565b6000602082019050611e39600083018461196f565b92915050565b60006020820190508181036000830152611e59818461198d565b905092915050565b60006020820190508181036000830152611e7a816119c6565b9050919050565b60006020820190508181036000830152611e9a81611a2c565b9050919050565b60006020820190508181036000830152611eba81611a92565b9050919050565b60006020820190508181036000830152611eda81611af8565b9050919050565b60006020820190508181036000830152611efa81611b38565b9050919050565b60006020820190508181036000830152611f1a81611b9e565b9050919050565b60006020820190508181036000830152611f3a81611bde565b9050919050565b60006020820190508181036000830152611f5a81611c44565b9050919050565b60006020820190508181036000830152611f7a81611c84565b9050919050565b60006020820190508181036000830152611f9a81611cea565b9050919050565b60006020820190508181036000830152611fba81611d2a565b9050919050565b60006020820190508181036000830152611fda81611d6a565b9050919050565b6000602082019050611ff66000830184611dd0565b92915050565b600060c0820190506120116000830189611dd0565b61201e6020830188611951565b8181036040830152612030818761198d565b905061203f6060830186611dd0565b61204c6080830185611dd0565b61205960a083018461197e565b979650505050505050565b60006040820190506120796000830185611dd0565b818103602083015261208b818461198d565b90509392505050565b60006040820190506120a96000830185611dd0565b6120b66020830184611dd0565b9392505050565b60006020820190506120d26000830184611ddf565b92915050565b6000604051905081810181811067ffffffffffffffff821117156120ff576120fe612393565b5b8060405250919050565b600067ffffffffffffffff82111561212457612123612393565b5b601f19601f8301169050602081019050919050565b600081519050919050565b600082825260208201905092915050565b6000612160826121fc565b915061216b836121fc565b9250827fffffffffffffffffffffffffffffffffffffffffffffffffffffffffffffffff038211156121a05761219f612306565b5b828201905092915050565b60006121b6826121dc565b9050919050565b60008115159050919050565b60008190506121d7826123d3565b919050565b600073ffffffffffffffffffffffffffffffffffffffff82169050919050565b6000819050919050565b600060ff82169050919050565b600061221e82612225565b9050919050565b6000612230826121dc565b9050919050565b6000612242826121c9565b9050919050565b82818337600083830152505050565b60005b8381101561227657808201518184015260208101905061225b565b83811115612285576000848401525b50505050565b600060028204905060018216806122a357607f821691505b602082108114156122b7576122b6612364565b5b50919050565b60006122c8826121fc565b91507fffffffffffffffffffffffffffffffffffffffffffffffffffffffffffffffff8214156122fb576122fa612306565b5b600182019050919050565b7f4e487b7100000000000000000000000000000000000000000000000000000000600052601160045260246000fd5b7f4e487b7100000000000000000000000000000000000000000000000000000000600052602160045260246000fd5b7f4e487b7100000000000000000000000000000000000000000000000000000000600052602260045260246000fd5b7f4e487b7100000000000000000000000000000000000000000000000000000000600052604160045260246000fd5b6000601f19601f8301169050919050565b600381106123e4576123e3612335565b5b50565b6123f0816121ab565b81146123fb57600080fd5b50565b612407816121bd565b811461241257600080fd5b50565b61241e816121fc565b811461242957600080fd5b5056fea2646970667358221220cb09d96e1cb3c2f37b89905843a056bbbc2147d866e4ad20324e7775ae675d4264736f6c63430008000033",
  "immutableReferences": {},
  "source": "// SPDX-License-Identifier: MIT\r\npragma solidity >=0.7.0 <0.9.0;\r\n\r\nimport \"@openzeppelin/contracts/token/ERC20/ERC20.sol\";\r\nimport \"@openzeppelin/contracts/token/ERC20/IERC20.sol\";\r\n\r\ncontract ERC is ERC20 {\r\n    address public admin;\r\n    IERC20 public token;  // ERC20 interface token used for voting\r\n\r\n    uint256 public proposalCount;  // keeps track of No of proposals\r\n    uint256 public votingEndTime = block.timestamp; \r\n     // End time of the voting period\r\n    uint256 public Now;\r\n\r\n    constructor(uint256 initialSupply) ERC20(\"Token\", \"GVMT\") {\r\n        _mint(msg.sender, initialSupply); // Mint initial supply to sender\r\n        admin = msg.sender;\r\n    }\r\n\r\n    modifier onlyAdmin() {\r\n        require(msg.sender == admin, \"Only Admins can access\");\r\n        _;\r\n    }\r\n\r\n    enum ProposalStatus { Pending, Approved, Rejected }\r\n\r\n    struct Proposal {\r\n        uint256 id;               // Unique identifier for the proposal\r\n        address proposer;         // Address of the proposal submitter\r\n        string description;       // Description or details of the proposal\r\n        uint256 forVotes;         // Total votes in favor of the proposal\r\n        uint256 againstVotes;     // Total votes against the proposal\r\n        ProposalStatus status;    // Current status of the proposal\r\n        mapping(address => bool) voted;  // Tracks if the address has voted or not\r\n    }\r\n\r\n    mapping(uint256 => Proposal) public proposals;  // Storing the proposals\r\n\r\n    event ProposalCreated(uint256 id, address indexed proposer, string desc);\r\n    event Voted(uint256 indexed proposalId, address indexed voter, bool forVote);\r\n    event ProposalExecuted(uint256 indexed proposalId, uint256 forVotes, uint256 againstVotes);\r\n   \r\n   \r\n    modifier duringVotingPeriod() {\r\n       \r\n        require(block.timestamp < votingEndTime, \"Voting period has ended\");\r\n        _;\r\n    }\r\n\r\n    function createProposal(string memory _description) external onlyAdmin duringVotingPeriod {\r\n        proposalCount++;\r\n\r\n        Proposal storage newProposal = proposals[proposalCount];\r\n        newProposal.id = proposalCount;\r\n        newProposal.proposer = msg.sender;\r\n        newProposal.description = _description;\r\n        newProposal.forVotes = 0;\r\n        newProposal.againstVotes = 0;\r\n        newProposal.status = ProposalStatus.Pending;\r\n\r\n        emit ProposalCreated(proposalCount, msg.sender, _description);\r\n    }\r\n\r\n    function vote(uint256 proposalId, bool inSupport) external duringVotingPeriod {\r\n        Proposal storage proposal = proposals[proposalId];\r\n        \r\n        \r\n\r\n        require(!proposal.voted[msg.sender], \"Already voted\");\r\n\r\n        // Require a minimum balance of tokens for voting (adjust as needed)\r\n        require(balanceOf(msg.sender) > 0, \"Insufficient tokens for voting\");\r\n\r\n        if (inSupport) {\r\n            proposal.forVotes += balanceOf(msg.sender);\r\n        } else {\r\n            proposal.againstVotes += balanceOf(msg.sender);\r\n        }\r\n\r\n        proposal.voted[msg.sender] = true;\r\n\r\n        emit Voted(proposalId, msg.sender, inSupport);\r\n    }\r\n\r\n    function executeProposal(uint256 proposalId) external onlyAdmin duringVotingPeriod {\r\n        Proposal storage proposal = proposals[proposalId];\r\n        require(proposal.status == ProposalStatus.Pending, \"Proposal not pending\");\r\n\r\n        if (proposal.forVotes > proposal.againstVotes) {\r\n            // Proposal is approved\r\n            proposal.status = ProposalStatus.Approved;\r\n            emit ProposalExecuted(proposalId, proposal.forVotes, proposal.againstVotes);\r\n\r\n            // Implement the action of the proposal here\r\n            // Example: interact with other contracts, update state, etc.\r\n        } else {\r\n            // Proposal is rejected\r\n            proposal.status = ProposalStatus.Rejected;\r\n        }\r\n    }\r\n\r\n    function setVotingPeriod(uint256 _durationInSeconds) external onlyAdmin {\r\n        // Allow the admin to set a new voting period\r\n        votingEndTime = block.timestamp + _durationInSeconds;\r\n    }\r\n}\r\n",
  "sourcePath": "F:\\projects\\ERC20_Govmt\\contracts\\ERC.sol",
  "compiler": {
    "name": "solc",
    "version": "0.8.0+commit.c7dfd78e.Emscripten.clang"
  },
  "schemaVersion": "3.4.16",
  "updatedAt": "2024-02-04T08:05:14.253Z",
  "networkType": "ethereum",
  "devdoc": {
    "kind": "dev",
    "methods": {
      "allowance(address,address)": {
        "details": "See {IERC20-allowance}."
      },
      "approve(address,uint256)": {
        "details": "See {IERC20-approve}. Requirements: - `spender` cannot be the zero address."
      },
      "balanceOf(address)": {
        "details": "See {IERC20-balanceOf}."
      },
      "decimals()": {
        "details": "Returns the number of decimals used to get its user representation. For example, if `decimals` equals `2`, a balance of `505` tokens should be displayed to a user as `5.05` (`505 / 10 ** 2`). Tokens usually opt for a value of 18, imitating the relationship between Ether and Wei. This is the value {ERC20} uses, unless this function is overridden; NOTE: This information is only used for _display_ purposes: it in no way affects any of the arithmetic of the contract, including {IERC20-balanceOf} and {IERC20-transfer}."
      },
      "decreaseAllowance(address,uint256)": {
        "details": "Atomically decreases the allowance granted to `spender` by the caller. This is an alternative to {approve} that can be used as a mitigation for problems described in {IERC20-approve}. Emits an {Approval} event indicating the updated allowance. Requirements: - `spender` cannot be the zero address. - `spender` must have allowance for the caller of at least `subtractedValue`."
      },
      "increaseAllowance(address,uint256)": {
        "details": "Atomically increases the allowance granted to `spender` by the caller. This is an alternative to {approve} that can be used as a mitigation for problems described in {IERC20-approve}. Emits an {Approval} event indicating the updated allowance. Requirements: - `spender` cannot be the zero address."
      },
      "name()": {
        "details": "Returns the name of the token."
      },
      "symbol()": {
        "details": "Returns the symbol of the token, usually a shorter version of the name."
      },
      "totalSupply()": {
        "details": "See {IERC20-totalSupply}."
      },
      "transfer(address,uint256)": {
        "details": "See {IERC20-transfer}. Requirements: - `recipient` cannot be the zero address. - the caller must have a balance of at least `amount`."
      },
      "transferFrom(address,address,uint256)": {
        "details": "See {IERC20-transferFrom}. Emits an {Approval} event indicating the updated allowance. This is not required by the EIP. See the note at the beginning of {ERC20}. Requirements: - `sender` and `recipient` cannot be the zero address. - `sender` must have a balance of at least `amount`. - the caller must have allowance for ``sender``'s tokens of at least `amount`."
      }
    },
    "version": 1
  },
  "userdoc": {
    "kind": "user",
    "methods": {},
    "version": 1
  }
}