{
  "contractName": "Government",
  "abi": [
    {
      "inputs": [
        {
          "internalType": "string",
          "name": "name",
          "type": "string"
        },
        {
          "internalType": "string",
          "name": "symbol",
          "type": "string"
        },
        {
          "internalType": "uint256",
          "name": "initialSupply",
          "type": "uint256"
        }
      ],
      "stateMutability": "nonpayable",
      "type": "constructor"
    },
    {
      "inputs": [
        {
          "internalType": "address",
          "name": "spender",
          "type": "address"
        },
        {
          "internalType": "uint256",
          "name": "allowance",
          "type": "uint256"
        },
        {
          "internalType": "uint256",
          "name": "needed",
          "type": "uint256"
        }
      ],
      "name": "ERC20InsufficientAllowance",
      "type": "error"
    },
    {
      "inputs": [
        {
          "internalType": "address",
          "name": "sender",
          "type": "address"
        },
        {
          "internalType": "uint256",
          "name": "balance",
          "type": "uint256"
        },
        {
          "internalType": "uint256",
          "name": "needed",
          "type": "uint256"
        }
      ],
      "name": "ERC20InsufficientBalance",
      "type": "error"
    },
    {
      "inputs": [
        {
          "internalType": "address",
          "name": "approver",
          "type": "address"
        }
      ],
      "name": "ERC20InvalidApprover",
      "type": "error"
    },
    {
      "inputs": [
        {
          "internalType": "address",
          "name": "receiver",
          "type": "address"
        }
      ],
      "name": "ERC20InvalidReceiver",
      "type": "error"
    },
    {
      "inputs": [
        {
          "internalType": "address",
          "name": "sender",
          "type": "address"
        }
      ],
      "name": "ERC20InvalidSender",
      "type": "error"
    },
    {
      "inputs": [
        {
          "internalType": "address",
          "name": "spender",
          "type": "address"
        }
      ],
      "name": "ERC20InvalidSpender",
      "type": "error"
    },
    {
      "anonymous": false,
      "inputs": [
        {
          "indexed": true,
          "internalType": "address",
          "name": "owner",
          "type": "address"
        },
        {
          "indexed": true,
          "internalType": "address",
          "name": "spender",
          "type": "address"
        },
        {
          "indexed": false,
          "internalType": "uint256",
          "name": "value",
          "type": "uint256"
        }
      ],
      "name": "Approval",
      "type": "event"
    },
    {
      "anonymous": false,
      "inputs": [
        {
          "indexed": false,
          "internalType": "uint256",
          "name": "id",
          "type": "uint256"
        },
        {
          "indexed": true,
          "internalType": "address",
          "name": "proposer",
          "type": "address"
        },
        {
          "indexed": false,
          "internalType": "string",
          "name": "desc",
          "type": "string"
        }
      ],
      "name": "ProposalCreated",
      "type": "event"
    },
    {
      "anonymous": false,
      "inputs": [
        {
          "indexed": true,
          "internalType": "uint256",
          "name": "proposalId",
          "type": "uint256"
        },
        {
          "indexed": false,
          "internalType": "uint256",
          "name": "forVotes",
          "type": "uint256"
        },
        {
          "indexed": false,
          "internalType": "uint256",
          "name": "againstVotes",
          "type": "uint256"
        }
      ],
      "name": "ProposalExecuted",
      "type": "event"
    },
    {
      "anonymous": false,
      "inputs": [
        {
          "indexed": true,
          "internalType": "address",
          "name": "from",
          "type": "address"
        },
        {
          "indexed": true,
          "internalType": "address",
          "name": "to",
          "type": "address"
        },
        {
          "indexed": false,
          "internalType": "uint256",
          "name": "value",
          "type": "uint256"
        }
      ],
      "name": "Transfer",
      "type": "event"
    },
    {
      "anonymous": false,
      "inputs": [
        {
          "indexed": true,
          "internalType": "uint256",
          "name": "proposalId",
          "type": "uint256"
        },
        {
          "indexed": true,
          "internalType": "address",
          "name": "voter",
          "type": "address"
        },
        {
          "indexed": false,
          "internalType": "bool",
          "name": "forVote",
          "type": "bool"
        }
      ],
      "name": "Voted",
      "type": "event"
    },
    {
      "inputs": [],
      "name": "admin",
      "outputs": [
        {
          "internalType": "address",
          "name": "",
          "type": "address"
        }
      ],
      "stateMutability": "view",
      "type": "function"
    },
    {
      "inputs": [
        {
          "internalType": "address",
          "name": "owner",
          "type": "address"
        },
        {
          "internalType": "address",
          "name": "spender",
          "type": "address"
        }
      ],
      "name": "allowance",
      "outputs": [
        {
          "internalType": "uint256",
          "name": "",
          "type": "uint256"
        }
      ],
      "stateMutability": "view",
      "type": "function"
    },
    {
      "inputs": [
        {
          "internalType": "address",
          "name": "spender",
          "type": "address"
        },
        {
          "internalType": "uint256",
          "name": "value",
          "type": "uint256"
        }
      ],
      "name": "approve",
      "outputs": [
        {
          "internalType": "bool",
          "name": "",
          "type": "bool"
        }
      ],
      "stateMutability": "nonpayable",
      "type": "function"
    },
    {
      "inputs": [
        {
          "internalType": "address",
          "name": "account",
          "type": "address"
        }
      ],
      "name": "balanceOf",
      "outputs": [
        {
          "internalType": "uint256",
          "name": "",
          "type": "uint256"
        }
      ],
      "stateMutability": "view",
      "type": "function"
    },
    {
      "inputs": [],
      "name": "decimals",
      "outputs": [
        {
          "internalType": "uint8",
          "name": "",
          "type": "uint8"
        }
      ],
      "stateMutability": "view",
      "type": "function"
    },
    {
      "inputs": [],
      "name": "name",
      "outputs": [
        {
          "internalType": "string",
          "name": "",
          "type": "string"
        }
      ],
      "stateMutability": "view",
      "type": "function"
    },
    {
      "inputs": [],
      "name": "proposalCount",
      "outputs": [
        {
          "internalType": "uint256",
          "name": "",
          "type": "uint256"
        }
      ],
      "stateMutability": "view",
      "type": "function"
    },
    {
      "inputs": [
        {
          "internalType": "uint256",
          "name": "",
          "type": "uint256"
        }
      ],
      "name": "proposals",
      "outputs": [
        {
          "internalType": "uint256",
          "name": "id",
          "type": "uint256"
        },
        {
          "internalType": "address",
          "name": "proposer",
          "type": "address"
        },
        {
          "internalType": "string",
          "name": "description",
          "type": "string"
        },
        {
          "internalType": "uint256",
          "name": "forVotes",
          "type": "uint256"
        },
        {
          "internalType": "uint256",
          "name": "againstVotes",
          "type": "uint256"
        },
        {
          "internalType": "enum Government.ProposalStatus",
          "name": "status",
          "type": "uint8"
        }
      ],
      "stateMutability": "view",
      "type": "function"
    },
    {
      "inputs": [],
      "name": "symbol",
      "outputs": [
        {
          "internalType": "string",
          "name": "",
          "type": "string"
        }
      ],
      "stateMutability": "view",
      "type": "function"
    },
    {
      "inputs": [],
      "name": "token",
      "outputs": [
        {
          "internalType": "contract IERC20",
          "name": "",
          "type": "address"
        }
      ],
      "stateMutability": "view",
      "type": "function"
    },
    {
      "inputs": [],
      "name": "totalSupply",
      "outputs": [
        {
          "internalType": "uint256",
          "name": "",
          "type": "uint256"
        }
      ],
      "stateMutability": "view",
      "type": "function"
    },
    {
      "inputs": [
        {
          "internalType": "address",
          "name": "to",
          "type": "address"
        },
        {
          "internalType": "uint256",
          "name": "value",
          "type": "uint256"
        }
      ],
      "name": "transfer",
      "outputs": [
        {
          "internalType": "bool",
          "name": "",
          "type": "bool"
        }
      ],
      "stateMutability": "nonpayable",
      "type": "function"
    },
    {
      "inputs": [
        {
          "internalType": "address",
          "name": "from",
          "type": "address"
        },
        {
          "internalType": "address",
          "name": "to",
          "type": "address"
        },
        {
          "internalType": "uint256",
          "name": "value",
          "type": "uint256"
        }
      ],
      "name": "transferFrom",
      "outputs": [
        {
          "internalType": "bool",
          "name": "",
          "type": "bool"
        }
      ],
      "stateMutability": "nonpayable",
      "type": "function"
    },
    {
      "inputs": [],
      "name": "votingEndTime",
      "outputs": [
        {
          "internalType": "uint256",
          "name": "",
          "type": "uint256"
        }
      ],
      "stateMutability": "view",
      "type": "function"
    },
    {
      "inputs": [
        {
          "internalType": "string",
          "name": "_description",
          "type": "string"
        }
      ],
      "name": "createProposal",
      "outputs": [],
      "stateMutability": "nonpayable",
      "type": "function"
    },
    {
      "inputs": [
        {
          "internalType": "uint256",
          "name": "proposalId",
          "type": "uint256"
        },
        {
          "internalType": "bool",
          "name": "inSupport",
          "type": "bool"
        }
      ],
      "name": "vote",
      "outputs": [],
      "stateMutability": "nonpayable",
      "type": "function"
    },
    {
      "inputs": [
        {
          "internalType": "uint256",
          "name": "proposalId",
          "type": "uint256"
        }
      ],
      "name": "executeProposal",
      "outputs": [],
      "stateMutability": "nonpayable",
      "type": "function"
    },
    {
      "inputs": [
        {
          "internalType": "uint256",
          "name": "_durationInSeconds",
          "type": "uint256"
        }
      ],
      "name": "setVotingPeriod",
      "outputs": [],
      "stateMutability": "nonpayable",
      "type": "function"
    }
  ],
  "bytecode": "0x608060405234801562000010575f80fd5b5060405162002ab238038062002ab2833981810160405281019062000036919062000524565b82828160039081620000499190620007e9565b5080600490816200005b9190620007e9565b505050620000703382620000b960201b60201c565b3360055f6101000a81548173ffffffffffffffffffffffffffffffffffffffff021916908373ffffffffffffffffffffffffffffffffffffffff160217905550505050620009f9565b5f73ffffffffffffffffffffffffffffffffffffffff168273ffffffffffffffffffffffffffffffffffffffff16036200012c575f6040517fec442f0500000000000000000000000000000000000000000000000000000000815260040162000123919062000910565b60405180910390fd5b6200013f5f83836200014360201b60201c565b5050565b5f73ffffffffffffffffffffffffffffffffffffffff168373ffffffffffffffffffffffffffffffffffffffff160362000197578060025f8282546200018a919062000958565b9250508190555062000268565b5f805f8573ffffffffffffffffffffffffffffffffffffffff1673ffffffffffffffffffffffffffffffffffffffff1681526020019081526020015f205490508181101562000223578381836040517fe450d38c0000000000000000000000000000000000000000000000000000000081526004016200021a93929190620009a3565b60405180910390fd5b8181035f808673ffffffffffffffffffffffffffffffffffffffff1673ffffffffffffffffffffffffffffffffffffffff1681526020019081526020015f2081905550505b5f73ffffffffffffffffffffffffffffffffffffffff168273ffffffffffffffffffffffffffffffffffffffff1603620002b1578060025f8282540392505081905550620002fb565b805f808473ffffffffffffffffffffffffffffffffffffffff1673ffffffffffffffffffffffffffffffffffffffff1681526020019081526020015f205f82825401925050819055505b8173ffffffffffffffffffffffffffffffffffffffff168373ffffffffffffffffffffffffffffffffffffffff167fddf252ad1be2c89b69c2b068fc378daa952ba7f163c4a11628f55a4df523b3ef836040516200035a9190620009de565b60405180910390a3505050565b5f604051905090565b5f80fd5b5f80fd5b5f80fd5b5f80fd5b5f601f19601f8301169050919050565b7f4e487b71000000000000000000000000000000000000000000000000000000005f52604160045260245ffd5b620003c88262000380565b810181811067ffffffffffffffff82111715620003ea57620003e962000390565b5b80604052505050565b5f620003fe62000367565b90506200040c8282620003bd565b919050565b5f67ffffffffffffffff8211156200042e576200042d62000390565b5b620004398262000380565b9050602081019050919050565b5f5b838110156200046557808201518184015260208101905062000448565b5f8484015250505050565b5f62000486620004808462000411565b620003f3565b905082815260208101848484011115620004a557620004a46200037c565b5b620004b284828562000446565b509392505050565b5f82601f830112620004d157620004d062000378565b5b8151620004e384826020860162000470565b91505092915050565b5f819050919050565b6200050081620004ec565b81146200050b575f80fd5b50565b5f815190506200051e81620004f5565b92915050565b5f805f606084860312156200053e576200053d62000370565b5b5f84015167ffffffffffffffff8111156200055e576200055d62000374565b5b6200056c86828701620004ba565b935050602084015167ffffffffffffffff81111562000590576200058f62000374565b5b6200059e86828701620004ba565b9250506040620005b1868287016200050e565b9150509250925092565b5f81519050919050565b7f4e487b71000000000000000000000000000000000000000000000000000000005f52602260045260245ffd5b5f60028204905060018216806200060a57607f821691505b60208210810362000620576200061f620005c5565b5b50919050565b5f819050815f5260205f209050919050565b5f6020601f8301049050919050565b5f82821b905092915050565b5f60088302620006847fffffffffffffffffffffffffffffffffffffffffffffffffffffffffffffffff8262000647565b62000690868362000647565b95508019841693508086168417925050509392505050565b5f819050919050565b5f620006d1620006cb620006c584620004ec565b620006a8565b620004ec565b9050919050565b5f819050919050565b620006ec83620006b1565b62000704620006fb82620006d8565b84845462000653565b825550505050565b5f90565b6200071a6200070c565b62000727818484620006e1565b505050565b5b818110156200074e57620007425f8262000710565b6001810190506200072d565b5050565b601f8211156200079d57620007678162000626565b620007728462000638565b8101602085101562000782578190505b6200079a620007918562000638565b8301826200072c565b50505b505050565b5f82821c905092915050565b5f620007bf5f1984600802620007a2565b1980831691505092915050565b5f620007d98383620007ae565b9150826002028217905092915050565b620007f482620005bb565b67ffffffffffffffff81111562000810576200080f62000390565b5b6200081c8254620005f2565b6200082982828562000752565b5f60209050601f8311600181146200085f575f84156200084a578287015190505b620008568582620007cc565b865550620008c5565b601f1984166200086f8662000626565b5f5b82811015620008985784890151825560018201915060208501945060208101905062000871565b86831015620008b85784890151620008b4601f891682620007ae565b8355505b6001600288020188555050505b505050505050565b5f73ffffffffffffffffffffffffffffffffffffffff82169050919050565b5f620008f882620008cd565b9050919050565b6200090a81620008ec565b82525050565b5f602082019050620009255f830184620008ff565b92915050565b7f4e487b71000000000000000000000000000000000000000000000000000000005f52601160045260245ffd5b5f6200096482620004ec565b91506200097183620004ec565b92508282019050808211156200098c576200098b6200092b565b5b92915050565b6200099d81620004ec565b82525050565b5f606082019050620009b85f830186620008ff565b620009c7602083018562000992565b620009d6604083018462000992565b949350505050565b5f602082019050620009f35f83018462000992565b92915050565b6120ab8062000a075f395ff3fe608060405234801561000f575f80fd5b5060043610610114575f3560e01c806370a08231116100a0578063da35c6641161006f578063da35c664146102f7578063dd62ed3e14610315578063ea0217cf14610345578063f851a44014610361578063fc0c546a1461037f57610114565b806370a082311461025d57806395d89b411461028d578063a9059cbb146102ab578063c9d27afe146102db57610114565b806318160ddd116100e757806318160ddd146101b75780631ea736e0146101d557806323b872dd146101f3578063313ce5671461022357806349c2a1a61461024157610114565b8063013cf08b1461011857806306fdde031461014d578063095ea7b31461016b5780630d61b5191461019b575b5f80fd5b610132600480360381019061012d91906114a0565b61039d565b60405161014496959493929190611616565b60405180910390f35b610155610486565b604051610162919061167c565b60405180910390f35b610185600480360381019061018091906116c6565b610516565b604051610192919061171e565b60405180910390f35b6101b560048036038101906101b091906114a0565b610538565b005b6101bf610749565b6040516101cc9190611737565b60405180910390f35b6101dd610752565b6040516101ea9190611737565b60405180910390f35b61020d60048036038101906102089190611750565b610758565b60405161021a919061171e565b60405180910390f35b61022b610786565b60405161023891906117bb565b60405180910390f35b61025b60048036038101906102569190611900565b61078e565b005b61027760048036038101906102729190611947565b61096d565b6040516102849190611737565b60405180910390f35b6102956109b2565b6040516102a2919061167c565b60405180910390f35b6102c560048036038101906102c091906116c6565b610a42565b6040516102d2919061171e565b60405180910390f35b6102f560048036038101906102f0919061199c565b610a64565b005b6102ff610d63565b60405161030c9190611737565b60405180910390f35b61032f600480360381019061032a91906119da565b610d69565b60405161033c9190611737565b60405180910390f35b61035f600480360381019061035a91906114a0565b610deb565b005b610369610e8f565b6040516103769190611a18565b60405180910390f35b610387610eb4565b6040516103949190611a8c565b60405180910390f35b6009602052805f5260405f205f91509050805f015490806001015f9054906101000a900473ffffffffffffffffffffffffffffffffffffffff16908060020180546103e790611ad2565b80601f016020809104026020016040519081016040528092919081815260200182805461041390611ad2565b801561045e5780601f106104355761010080835404028352916020019161045e565b820191905f5260205f20905b81548152906001019060200180831161044157829003601f168201915b505050505090806003015490806004015490806005015f9054906101000a900460ff16905086565b60606003805461049590611ad2565b80601f01602080910402602001604051908101604052809291908181526020018280546104c190611ad2565b801561050c5780601f106104e35761010080835404028352916020019161050c565b820191905f5260205f20905b8154815290600101906020018083116104ef57829003601f168201915b5050505050905090565b5f80610520610ed9565b905061052d818585610ee0565b600191505092915050565b60055f9054906101000a900473ffffffffffffffffffffffffffffffffffffffff1673ffffffffffffffffffffffffffffffffffffffff163373ffffffffffffffffffffffffffffffffffffffff16146105c7576040517f08c379a00000000000000000000000000000000000000000000000000000000081526004016105be90611b4c565b60405180910390fd5b600854421061060b576040517f08c379a000000000000000000000000000000000000000000000000000000000815260040161060290611bb4565b60405180910390fd5b5f60095f8381526020019081526020015f2090505f6002811115610632576106316115a3565b5b816005015f9054906101000a900460ff166002811115610655576106546115a3565b5b14610695576040517f08c379a000000000000000000000000000000000000000000000000000000000815260040161068c90611c1c565b60405180910390fd5b806004015481600301541115610718576001816005015f6101000a81548160ff021916908360028111156106cc576106cb6115a3565b5b0217905550817f3842d9e8746c3c1b0c5e717a88df9c9ae97f2f8c0e01e42dce160aafdb3840e98260030154836004015460405161070b929190611c3a565b60405180910390a2610745565b6002816005015f6101000a81548160ff0219169083600281111561073f5761073e6115a3565b5b02179055505b5050565b5f600254905090565b60085481565b5f80610762610ed9565b905061076f858285610ef2565b61077a858585610f84565b60019150509392505050565b5f6012905090565b60055f9054906101000a900473ffffffffffffffffffffffffffffffffffffffff1673ffffffffffffffffffffffffffffffffffffffff163373ffffffffffffffffffffffffffffffffffffffff161461081d576040517f08c379a000000000000000000000000000000000000000000000000000000000815260040161081490611b4c565b60405180910390fd5b6008544210610861576040517f08c379a000000000000000000000000000000000000000000000000000000000815260040161085890611bb4565b60405180910390fd5b60075f81548092919061087390611c8e565b91905055505f60095f60075481526020019081526020015f209050600754815f018190555033816001015f6101000a81548173ffffffffffffffffffffffffffffffffffffffff021916908373ffffffffffffffffffffffffffffffffffffffff160217905550818160020190816108eb9190611e69565b505f816005015f6101000a81548160ff02191690836002811115610912576109116115a3565b5b02179055503373ffffffffffffffffffffffffffffffffffffffff167f7585f467599d0f008985f231af99293be388626ac16ca59505c2f8f88969cd6360075484604051610961929190611f38565b60405180910390a25050565b5f805f8373ffffffffffffffffffffffffffffffffffffffff1673ffffffffffffffffffffffffffffffffffffffff1681526020019081526020015f20549050919050565b6060600480546109c190611ad2565b80601f01602080910402602001604051908101604052809291908181526020018280546109ed90611ad2565b8015610a385780601f10610a0f57610100808354040283529160200191610a38565b820191905f5260205f20905b815481529060010190602001808311610a1b57829003601f168201915b5050505050905090565b5f80610a4c610ed9565b9050610a59818585610f84565b600191505092915050565b6008544210610aa8576040517f08c379a0000000000000000000000000000000000000000000000000000000008152600401610a9f90611bb4565b60405180910390fd5b5f60095f8481526020019081526020015f209050806006015f3373ffffffffffffffffffffffffffffffffffffffff1673ffffffffffffffffffffffffffffffffffffffff1681526020019081526020015f205f9054906101000a900460ff1615610b48576040517f08c379a0000000000000000000000000000000000000000000000000000000008152600401610b3f90611fb0565b60405180910390fd5b8115610c055760065f9054906101000a900473ffffffffffffffffffffffffffffffffffffffff1673ffffffffffffffffffffffffffffffffffffffff166370a08231336040518263ffffffff1660e01b8152600401610ba89190611a18565b602060405180830381865afa158015610bc3573d5f803e3d5ffd5b505050506040513d601f19601f82011682018060405250810190610be79190611fe2565b816003015f828254610bf9919061200d565b92505081905550610cb8565b60065f9054906101000a900473ffffffffffffffffffffffffffffffffffffffff1673ffffffffffffffffffffffffffffffffffffffff166370a08231336040518263ffffffff1660e01b8152600401610c5f9190611a18565b602060405180830381865afa158015610c7a573d5f803e3d5ffd5b505050506040513d601f19601f82011682018060405250810190610c9e9190611fe2565b816004015f828254610cb0919061200d565b925050819055505b6001816006015f3373ffffffffffffffffffffffffffffffffffffffff1673ffffffffffffffffffffffffffffffffffffffff1681526020019081526020015f205f6101000a81548160ff0219169083151502179055503373ffffffffffffffffffffffffffffffffffffffff16837ff2913dbe661ee2acc4a046d8fbcdc792373bda34c41c6086484b5345e5785e5f84604051610d56919061171e565b60405180910390a3505050565b60075481565b5f60015f8473ffffffffffffffffffffffffffffffffffffffff1673ffffffffffffffffffffffffffffffffffffffff1681526020019081526020015f205f8373ffffffffffffffffffffffffffffffffffffffff1673ffffffffffffffffffffffffffffffffffffffff1681526020019081526020015f2054905092915050565b60055f9054906101000a900473ffffffffffffffffffffffffffffffffffffffff1673ffffffffffffffffffffffffffffffffffffffff163373ffffffffffffffffffffffffffffffffffffffff1614610e7a576040517f08c379a0000000000000000000000000000000000000000000000000000000008152600401610e7190611b4c565b60405180910390fd5b8042610e86919061200d565b60088190555050565b60055f9054906101000a900473ffffffffffffffffffffffffffffffffffffffff1681565b60065f9054906101000a900473ffffffffffffffffffffffffffffffffffffffff1681565b5f33905090565b610eed8383836001611074565b505050565b5f610efd8484610d69565b90507fffffffffffffffffffffffffffffffffffffffffffffffffffffffffffffffff8114610f7e5781811015610f6f578281836040517ffb8f41b2000000000000000000000000000000000000000000000000000000008152600401610f6693929190612040565b60405180910390fd5b610f7d84848484035f611074565b5b50505050565b5f73ffffffffffffffffffffffffffffffffffffffff168373ffffffffffffffffffffffffffffffffffffffff1603610ff4575f6040517f96c6fd1e000000000000000000000000000000000000000000000000000000008152600401610feb9190611a18565b60405180910390fd5b5f73ffffffffffffffffffffffffffffffffffffffff168273ffffffffffffffffffffffffffffffffffffffff1603611064575f6040517fec442f0500000000000000000000000000000000000000000000000000000000815260040161105b9190611a18565b60405180910390fd5b61106f838383611243565b505050565b5f73ffffffffffffffffffffffffffffffffffffffff168473ffffffffffffffffffffffffffffffffffffffff16036110e4575f6040517fe602df050000000000000000000000000000000000000000000000000000000081526004016110db9190611a18565b60405180910390fd5b5f73ffffffffffffffffffffffffffffffffffffffff168373ffffffffffffffffffffffffffffffffffffffff1603611154575f6040517f94280d6200000000000000000000000000000000000000000000000000000000815260040161114b9190611a18565b60405180910390fd5b8160015f8673ffffffffffffffffffffffffffffffffffffffff1673ffffffffffffffffffffffffffffffffffffffff1681526020019081526020015f205f8573ffffffffffffffffffffffffffffffffffffffff1673ffffffffffffffffffffffffffffffffffffffff1681526020019081526020015f2081905550801561123d578273ffffffffffffffffffffffffffffffffffffffff168473ffffffffffffffffffffffffffffffffffffffff167f8c5be1e5ebec7d5bd14f71427d1e84f3dd0314c0f7b2291e5b200ac8c7c3b925846040516112349190611737565b60405180910390a35b50505050565b5f73ffffffffffffffffffffffffffffffffffffffff168373ffffffffffffffffffffffffffffffffffffffff1603611293578060025f828254611287919061200d565b92505081905550611361565b5f805f8573ffffffffffffffffffffffffffffffffffffffff1673ffffffffffffffffffffffffffffffffffffffff1681526020019081526020015f205490508181101561131c578381836040517fe450d38c00000000000000000000000000000000000000000000000000000000815260040161131393929190612040565b60405180910390fd5b8181035f808673ffffffffffffffffffffffffffffffffffffffff1673ffffffffffffffffffffffffffffffffffffffff1681526020019081526020015f2081905550505b5f73ffffffffffffffffffffffffffffffffffffffff168273ffffffffffffffffffffffffffffffffffffffff16036113a8578060025f82825403925050819055506113f2565b805f808473ffffffffffffffffffffffffffffffffffffffff1673ffffffffffffffffffffffffffffffffffffffff1681526020019081526020015f205f82825401925050819055505b8173ffffffffffffffffffffffffffffffffffffffff168373ffffffffffffffffffffffffffffffffffffffff167fddf252ad1be2c89b69c2b068fc378daa952ba7f163c4a11628f55a4df523b3ef8360405161144f9190611737565b60405180910390a3505050565b5f604051905090565b5f80fd5b5f80fd5b5f819050919050565b61147f8161146d565b8114611489575f80fd5b50565b5f8135905061149a81611476565b92915050565b5f602082840312156114b5576114b4611465565b5b5f6114c28482850161148c565b91505092915050565b6114d48161146d565b82525050565b5f73ffffffffffffffffffffffffffffffffffffffff82169050919050565b5f611503826114da565b9050919050565b611513816114f9565b82525050565b5f81519050919050565b5f82825260208201905092915050565b5f5b83811015611550578082015181840152602081019050611535565b5f8484015250505050565b5f601f19601f8301169050919050565b5f61157582611519565b61157f8185611523565b935061158f818560208601611533565b6115988161155b565b840191505092915050565b7f4e487b71000000000000000000000000000000000000000000000000000000005f52602160045260245ffd5b600381106115e1576115e06115a3565b5b50565b5f8190506115f1826115d0565b919050565b5f611600826115e4565b9050919050565b611610816115f6565b82525050565b5f60c0820190506116295f8301896114cb565b611636602083018861150a565b8181036040830152611648818761156b565b905061165760608301866114cb565b61166460808301856114cb565b61167160a0830184611607565b979650505050505050565b5f6020820190508181035f830152611694818461156b565b905092915050565b6116a5816114f9565b81146116af575f80fd5b50565b5f813590506116c08161169c565b92915050565b5f80604083850312156116dc576116db611465565b5b5f6116e9858286016116b2565b92505060206116fa8582860161148c565b9150509250929050565b5f8115159050919050565b61171881611704565b82525050565b5f6020820190506117315f83018461170f565b92915050565b5f60208201905061174a5f8301846114cb565b92915050565b5f805f6060848603121561176757611766611465565b5b5f611774868287016116b2565b9350506020611785868287016116b2565b92505060406117968682870161148c565b9150509250925092565b5f60ff82169050919050565b6117b5816117a0565b82525050565b5f6020820190506117ce5f8301846117ac565b92915050565b5f80fd5b5f80fd5b7f4e487b71000000000000000000000000000000000000000000000000000000005f52604160045260245ffd5b6118128261155b565b810181811067ffffffffffffffff82111715611831576118306117dc565b5b80604052505050565b5f61184361145c565b905061184f8282611809565b919050565b5f67ffffffffffffffff82111561186e5761186d6117dc565b5b6118778261155b565b9050602081019050919050565b828183375f83830152505050565b5f6118a461189f84611854565b61183a565b9050828152602081018484840111156118c0576118bf6117d8565b5b6118cb848285611884565b509392505050565b5f82601f8301126118e7576118e66117d4565b5b81356118f7848260208601611892565b91505092915050565b5f6020828403121561191557611914611465565b5b5f82013567ffffffffffffffff81111561193257611931611469565b5b61193e848285016118d3565b91505092915050565b5f6020828403121561195c5761195b611465565b5b5f611969848285016116b2565b91505092915050565b61197b81611704565b8114611985575f80fd5b50565b5f8135905061199681611972565b92915050565b5f80604083850312156119b2576119b1611465565b5b5f6119bf8582860161148c565b92505060206119d085828601611988565b9150509250929050565b5f80604083850312156119f0576119ef611465565b5b5f6119fd858286016116b2565b9250506020611a0e858286016116b2565b9150509250929050565b5f602082019050611a2b5f83018461150a565b92915050565b5f819050919050565b5f611a54611a4f611a4a846114da565b611a31565b6114da565b9050919050565b5f611a6582611a3a565b9050919050565b5f611a7682611a5b565b9050919050565b611a8681611a6c565b82525050565b5f602082019050611a9f5f830184611a7d565b92915050565b7f4e487b71000000000000000000000000000000000000000000000000000000005f52602260045260245ffd5b5f6002820490506001821680611ae957607f821691505b602082108103611afc57611afb611aa5565b5b50919050565b7f4f6e6c792041646d696e732063616e20616363657373000000000000000000005f82015250565b5f611b36601683611523565b9150611b4182611b02565b602082019050919050565b5f6020820190508181035f830152611b6381611b2a565b9050919050565b7f566f74696e672074696d652068617320656e64656400000000000000000000005f82015250565b5f611b9e601583611523565b9150611ba982611b6a565b602082019050919050565b5f6020820190508181035f830152611bcb81611b92565b9050919050565b7f50726f706f73616c206e6f742070656e64696e670000000000000000000000005f82015250565b5f611c06601483611523565b9150611c1182611bd2565b602082019050919050565b5f6020820190508181035f830152611c3381611bfa565b9050919050565b5f604082019050611c4d5f8301856114cb565b611c5a60208301846114cb565b9392505050565b7f4e487b71000000000000000000000000000000000000000000000000000000005f52601160045260245ffd5b5f611c988261146d565b91507fffffffffffffffffffffffffffffffffffffffffffffffffffffffffffffffff8203611cca57611cc9611c61565b5b600182019050919050565b5f819050815f5260205f209050919050565b5f6020601f8301049050919050565b5f82821b905092915050565b5f60088302611d317fffffffffffffffffffffffffffffffffffffffffffffffffffffffffffffffff82611cf6565b611d3b8683611cf6565b95508019841693508086168417925050509392505050565b5f611d6d611d68611d638461146d565b611a31565b61146d565b9050919050565b5f819050919050565b611d8683611d53565b611d9a611d9282611d74565b848454611d02565b825550505050565b5f90565b611dae611da2565b611db9818484611d7d565b505050565b5b81811015611ddc57611dd15f82611da6565b600181019050611dbf565b5050565b601f821115611e2157611df281611cd5565b611dfb84611ce7565b81016020851015611e0a578190505b611e1e611e1685611ce7565b830182611dbe565b50505b505050565b5f82821c905092915050565b5f611e415f1984600802611e26565b1980831691505092915050565b5f611e598383611e32565b9150826002028217905092915050565b611e7282611519565b67ffffffffffffffff811115611e8b57611e8a6117dc565b5b611e958254611ad2565b611ea0828285611de0565b5f60209050601f831160018114611ed1575f8415611ebf578287015190505b611ec98582611e4e565b865550611f30565b601f198416611edf86611cd5565b5f5b82811015611f0657848901518255600182019150602085019450602081019050611ee1565b86831015611f235784890151611f1f601f891682611e32565b8355505b6001600288020188555050505b505050505050565b5f604082019050611f4b5f8301856114cb565b8181036020830152611f5d818461156b565b90509392505050565b7f416c726561647920766f746564000000000000000000000000000000000000005f82015250565b5f611f9a600d83611523565b9150611fa582611f66565b602082019050919050565b5f6020820190508181035f830152611fc781611f8e565b9050919050565b5f81519050611fdc81611476565b92915050565b5f60208284031215611ff757611ff6611465565b5b5f61200484828501611fce565b91505092915050565b5f6120178261146d565b91506120228361146d565b925082820190508082111561203a57612039611c61565b5b92915050565b5f6060820190506120535f83018661150a565b61206060208301856114cb565b61206d60408301846114cb565b94935050505056fea264697066735822122039c93c269347b8d33ac36f816d63d901dccd62952bc59dccedaac1df1a95e85964736f6c63430008150033",
  "immutableReferences": {},
  "source": "// SPDX-License-Identifier: MIT\r\npragma solidity ^0.8.0;\r\n\r\nimport \"@openzeppelin/contracts/token/ERC20/ERC20.sol\";\r\nimport \"@openzeppelin/contracts/token/ERC20/IERC20.sol\";\r\n\r\ncontract Government is ERC20 {\r\n    address public admin;\r\n    IERC20 public token;  // ERC20 interface token used for voting\r\n\r\n    uint256 public proposalCount;  // No of proposals\r\n    uint256 public votingEndTime;  // End time of the voting period\r\n\r\n    constructor(string memory name, string memory symbol, uint256 initialSupply) ERC20(name, symbol) {\r\n        _mint(msg.sender, initialSupply);  // Mint initial supply of tokens\r\n        admin = msg.sender;\r\n    }\r\n\r\n    modifier onlyAdmin() {\r\n        require(msg.sender == admin, \"Only Admins can access\");\r\n        _;\r\n    }\r\n\r\n    enum ProposalStatus { Pending, Approved, Rejected }\r\n\r\n    struct Proposal {\r\n        uint256 id;               // Unique identifier for the proposal\r\n        address proposer;         // Address of the proposal submitter\r\n        string description;       // Description or details of the proposal\r\n        uint256 forVotes;         // Total votes in favor of the proposal\r\n        uint256 againstVotes;     // Total votes against the proposal\r\n        ProposalStatus status;    // Current status of the proposal\r\n        mapping(address => bool) voted;  // Tracks if the address has voted or not\r\n    }\r\n\r\n    mapping(uint256 => Proposal) public proposals;  // Storing the proposals\r\n\r\n    event ProposalCreated(uint256 id, address indexed proposer, string desc);\r\n    event Voted(uint256 indexed proposalId, address indexed voter, bool forVote);\r\n    event ProposalExecuted(uint256 indexed proposalId, uint256 forVotes, uint256 againstVotes);\r\n\r\n    modifier duringVotingPeriod() {\r\n        require(block.timestamp < votingEndTime, \"Voting time has ended\");\r\n        _;\r\n    }\r\n\r\n    function createProposal(string memory _description) external onlyAdmin duringVotingPeriod {\r\n        proposalCount++;\r\n        Proposal storage newProposal = proposals[proposalCount];\r\n        newProposal.id = proposalCount;\r\n        newProposal.proposer = msg.sender;\r\n        newProposal.description = _description;\r\n        newProposal.status = ProposalStatus.Pending;\r\n\r\n        emit ProposalCreated(proposalCount, msg.sender, _description);\r\n    }\r\n\r\n    function vote(uint256 proposalId, bool inSupport) external duringVotingPeriod {\r\n        Proposal storage proposal = proposals[proposalId];\r\n        require(!proposal.voted[msg.sender], \"Already voted\");\r\n\r\n        if (inSupport) {\r\n            proposal.forVotes += token.balanceOf(msg.sender);\r\n        } else {\r\n            proposal.againstVotes += token.balanceOf(msg.sender);\r\n        }\r\n\r\n        proposal.voted[msg.sender] = true;\r\n\r\n        emit Voted(proposalId, msg.sender, inSupport);\r\n    }\r\n\r\n    function executeProposal(uint256 proposalId) external onlyAdmin duringVotingPeriod {\r\n        Proposal storage proposal = proposals[proposalId];\r\n        require(proposal.status == ProposalStatus.Pending, \"Proposal not pending\");\r\n\r\n        if (proposal.forVotes > proposal.againstVotes) {\r\n            proposal.status = ProposalStatus.Approved;\r\n            emit ProposalExecuted(proposalId, proposal.forVotes, proposal.againstVotes);\r\n            // Implement the action of the proposal here\r\n        } else {\r\n            proposal.status = ProposalStatus.Rejected;\r\n        }\r\n    }\r\n\r\n    function setVotingPeriod(uint256 _durationInSeconds) external onlyAdmin {\r\n        // Allow the admin to set a new voting period\r\n        votingEndTime = block.timestamp + _durationInSeconds;\r\n    }\r\n}\r\n",
  "sourcePath": "F:\\projects\\ERC20_Govmt\\contracts\\ERC.sol",
  "compiler": {
    "name": "solc",
    "version": "0.8.21+commit.d9974bed.Emscripten.clang"
  },
  "schemaVersion": "3.4.16",
  "updatedAt": "2024-02-03T19:08:32.081Z",
  "devdoc": {
    "errors": {
      "ERC20InsufficientAllowance(address,uint256,uint256)": [
        {
          "details": "Indicates a failure with the `spender`s `allowance`. Used in transfers.",
          "params": {
            "allowance": "Amount of tokens a `spender` is allowed to operate with.",
            "needed": "Minimum amount required to perform a transfer.",
            "spender": "Address that may be allowed to operate on tokens without being their owner."
          }
        }
      ],
      "ERC20InsufficientBalance(address,uint256,uint256)": [
        {
          "details": "Indicates an error related to the current `balance` of a `sender`. Used in transfers.",
          "params": {
            "balance": "Current balance for the interacting account.",
            "needed": "Minimum amount required to perform a transfer.",
            "sender": "Address whose tokens are being transferred."
          }
        }
      ],
      "ERC20InvalidApprover(address)": [
        {
          "details": "Indicates a failure with the `approver` of a token to be approved. Used in approvals.",
          "params": {
            "approver": "Address initiating an approval operation."
          }
        }
      ],
      "ERC20InvalidReceiver(address)": [
        {
          "details": "Indicates a failure with the token `receiver`. Used in transfers.",
          "params": {
            "receiver": "Address to which tokens are being transferred."
          }
        }
      ],
      "ERC20InvalidSender(address)": [
        {
          "details": "Indicates a failure with the token `sender`. Used in transfers.",
          "params": {
            "sender": "Address whose tokens are being transferred."
          }
        }
      ],
      "ERC20InvalidSpender(address)": [
        {
          "details": "Indicates a failure with the `spender` to be approved. Used in approvals.",
          "params": {
            "spender": "Address that may be allowed to operate on tokens without being their owner."
          }
        }
      ]
    },
    "events": {
      "Approval(address,address,uint256)": {
        "details": "Emitted when the allowance of a `spender` for an `owner` is set by a call to {approve}. `value` is the new allowance."
      },
      "Transfer(address,address,uint256)": {
        "details": "Emitted when `value` tokens are moved from one account (`from`) to another (`to`). Note that `value` may be zero."
      }
    },
    "kind": "dev",
    "methods": {
      "allowance(address,address)": {
        "details": "See {IERC20-allowance}."
      },
      "approve(address,uint256)": {
        "details": "See {IERC20-approve}. NOTE: If `value` is the maximum `uint256`, the allowance is not updated on `transferFrom`. This is semantically equivalent to an infinite approval. Requirements: - `spender` cannot be the zero address."
      },
      "balanceOf(address)": {
        "details": "See {IERC20-balanceOf}."
      },
      "decimals()": {
        "details": "Returns the number of decimals used to get its user representation. For example, if `decimals` equals `2`, a balance of `505` tokens should be displayed to a user as `5.05` (`505 / 10 ** 2`). Tokens usually opt for a value of 18, imitating the relationship between Ether and Wei. This is the default value returned by this function, unless it's overridden. NOTE: This information is only used for _display_ purposes: it in no way affects any of the arithmetic of the contract, including {IERC20-balanceOf} and {IERC20-transfer}."
      },
      "name()": {
        "details": "Returns the name of the token."
      },
      "symbol()": {
        "details": "Returns the symbol of the token, usually a shorter version of the name."
      },
      "totalSupply()": {
        "details": "See {IERC20-totalSupply}."
      },
      "transfer(address,uint256)": {
        "details": "See {IERC20-transfer}. Requirements: - `to` cannot be the zero address. - the caller must have a balance of at least `value`."
      },
      "transferFrom(address,address,uint256)": {
        "details": "See {IERC20-transferFrom}. Emits an {Approval} event indicating the updated allowance. This is not required by the EIP. See the note at the beginning of {ERC20}. NOTE: Does not update the allowance if the current allowance is the maximum `uint256`. Requirements: - `from` and `to` cannot be the zero address. - `from` must have a balance of at least `value`. - the caller must have allowance for ``from``'s tokens of at least `value`."
      }
    },
    "version": 1
  },
  "userdoc": {
    "kind": "user",
    "methods": {},
    "version": 1
  }
}